:020000040800F2
:10000000600600206D0100087501000877010008F6
:10001000790100087B0100087D0100080000000054
:100020000000000000000000000000007F01000848
:10003000810100080000000083010008850100081C
:100040008701000887010008870100088701000870
:100050008701000887010008870100088701000860
:100060008701000887010008870100088701000850
:100070008701000887010008870100088701000840
:100080008701000887010008870100088701000830
:100090008701000887010008870100088701000820
:1000A0008701000887010008870100088701000810
:1000B0008701000887010008870100088701000800
:1000C00087010008870100088701000887010008F0
:1000D00087010008870100088701000887010008E0
:1000E00087010008870100088701000800F002F876
:1000F00000F02CF80AA090E8000C82448344AAF196
:100100000107DA4501D100F021F8AFF2090EBAE893
:100110000F0013F0010F18BFFB1A43F0010318473B
:100120000802000018020000002300240025002619
:10013000103A28BF78C1FBD8520728BF30C148BF4A
:100140000B6070471FB51FBD10B510BD00F031F832
:100150001146FFF7F7FF00F0A3F800F04FF803B4E3
:10016000FFF7F2FF03BC00F057F800000948804792
:1001700009480047FEE7FEE7FEE7FEE7FEE7FEE789
:10018000FEE7FEE7FEE7FEE704480549054A064BA1
:10019000704700009D020008ED000008600000208C
:1001A0006006002060020020600200207047704757
:1001B0007047754600F02CF8AE4605006946534678
:1001C00020F00700854618B020B5FFF7DDFFBDE839
:1001D00020404FF000064FF000074FF000084FF0AE
:1001E000000BAC46ACE8C009ACE8C009ACE8C009FB
:1001F000ACE8C00921F007018D46704710B50446F0
:10020000AFF300802046BDE81040FFF7A8BF000014
:10021000004870470000002001491820ABBEFEE7EF
:10022000260002007047000040F60C00C4F20100F6
:10023000002101604FF40071C0F800144FF4004138
:10024000C0F800187047000040F60C00C4F201002E
:10025000102101600021C0F800144FF40041C0F8E3
:100260000018704740F60C00C4F201001021016034
:100270004FF40071C0F800140021C0F80018704756
:1002800081B000900098411E009120B10098411E5D
:1002900000280091FAD101B07047000070470000BB
:1002A00041F21800C4F202000168022241F01C0170
:1002B000016040F60440C4F201000168012362F3CA
:1002C00007110160D0F80014032262F31F71C0F817
:1002D000001440F60001C4F201010A6844F240240F
:1002E00063F313420A608268C0F20F0442F40072A2
:1002F0008260D0F8082442F40042C0F80824C8689C
:1003000040F01000C86000BFFFF79EFF2046FFF7D7
:10031000B7FFFFF7A7FF2046FFF7B2FFFFF784FF05
:100320002046FFF7ADFFEFE738030008000000208C
:0803300060060000280100082E
:040000050800016D81
:00000001FF
