:020000040800F2
:10000000600600206D0100087501000877010008F6
:10001000790100087B0100087D0100080000000054
:100020000000000000000000000000007F01000848
:10003000810100080000000083010008850100081C
:100040008701000887010008870100088701000870
:100050008701000887010008870100088701000860
:100060008701000887010008870100088701000850
:100070008701000887010008870100088701000840
:100080008701000887010008870100088701000830
:100090008701000887010008870100088701000820
:1000A0008701000887010008870100088701000810
:1000B0008701000887010008870100088701000800
:1000C00087010008870100088701000887010008F0
:1000D00087010008870100088701000887010008E0
:1000E00087010008870100088701000800F002F876
:1000F00000F02CF80AA090E8000C82448344AAF196
:100100000107DA4501D100F021F8AFF2090EBAE893
:100110000F0013F0010F18BFFB1A43F0010318473B
:10012000AC010000BC0100000023002400250026D3
:10013000103A28BF78C1FBD8520728BF30C148BF4A
:100140000B6070471FB51FBD10B510BD00F031F832
:100150001146FFF7F7FF00F077F800F04FF803B40F
:10016000FFF7F2FF03BC00F057F800000948804792
:1001700009480047FEE7FEE7FEE7FEE7FEE7FEE789
:10018000FEE7FEE7FEE7FEE704480549054A064BA1
:100190007047000045020008ED00000860000020E4
:1001A0006006002060020020600200207047704757
:1001B0007047754600F02CF8AE4605006946534678
:1001C00020F00700854618B020B5FFF7DDFFBDE839
:1001D00020404FF000064FF000074FF000084FF0AE
:1001E000000BAC46ACE8C009ACE8C009ACE8C009FB
:1001F000ACE8C00921F007018D46704710B50446F0
:10020000AFF300802046BDE81040FFF7A8BF000014
:10021000004870470000002001491820ABBEFEE7EF
:10022000260002007047000081B000900098411E37
:10023000009120B10098411E00280091FAD101B030
:10024000704700007047000041F21800C4F202003D
:10025000016840F60C0641F00401C4F20106016099
:1002600056F80C0C49F2806440F211114EF2001560
:10027000C0F2980461F30B004FF0FF37C0F2F55560
:1002800046F80C0C376000BF306820F00100306089
:100290002846FFF7C9FF20463760FFF7C5FF3068E3
:1002A00020F0020030602046FFF7BEFF2046376096
:1002B000FFF7BAFF306820F0040030602046FFF7F7
:1002C000B3FF20463760FFF7AFFFDDE7DC02000831
:0C02D0000000002060060000280100086B
:040000050800016D81
:00000001FF
